:020000040800F2
:1000000000800220B5120008B1120008AF120008EB
:10001000AF120008AF120008AF1200080000000085
:10002000000000000000000000000000B112000805
:10003000B112000800000000B11200080D0E000807
:10004000AF120008AF120008AF120008AF1200088C
:10005000AF120008AF120008AF120008AF1200087C
:10006000AF120008AF120008AF120008AF1200086C
:10007000AF120008AF120008AF120008AF1200085C
:10008000AF120008AF120008AF120008AF1200084C
:10009000AF120008AF120008AF120008AF1200083C
:1000A000AF120008AF120008AF120008AF1200082C
:1000B000AF120008AF120008AF120008AF1200081C
:1000C000AF120008AF120008AF120008AF1200080C
:1000D000AF120008AF120008750E0008AF1200083A
:1000E000AF120008AF120008AF120008AF120008EC
:1000F000AF120008AF120008AF120008AF120008DC
:10010000AF120008AF120008AF120008AF120008CB
:10011000AF120008AF120008AF120008AF120008BB
:10012000AF120008AF120008AF120008AF120008AB
:10013000AF120008AF120008AF120008AF1200089B
:10014000AF120008AF120008AF120008AF1200088B
:10015000AF120008AF120008AF120008AF1200087B
:10016000AF120008AF120008AF120008AF1200086B
:10017000AF120008AF120008AF120008AF1200085B
:10018000AF120008AF120008AF120008AF1200084B
:10019000AF120008AF120008AF120008AF1200083B
:1001A000AF120008AF120008AF12000838B50446BD
:1001B000837863F07F03837003885D2B27D05F2BE8
:1001C0003CD093B108238370002303800325284685
:1001D00038BD0423A3700325F9E7A37843F0010396
:1001E000A370A37813F0010FF1D120214FF09040BC
:1001F00000F003FF4FF400511E4800F0FBFEA8B9C9
:1002000000F0FEFDA0607D23E3605D232380A578E0
:1002100015F00405DDD1E168A06800F0B5FA00280A
:10022000DBD0A37823F00103A370DAE700F0E8FD48
:10023000A0604FF41673E3605F232380A57815F068
:1002400004050DD1E168A06800F09EFA60B1A378C2
:1002500023F00103A370A37813F0010FC5D0B6E714
:100260000423A3700325B2E7A37843F00103A3702E
:10027000F1E700BF0008004838B50446837863F012
:100280007F0383700388002B45D0892B00F2B28056
:10029000852BC0F0AF80853B042B00F2AB80DFE8FC
:1002A00003F03C516B829A000423A3700325A6E05F
:1002B00043F00103A3703CE00423A37003259EE0F8
:1002C00043F00103A37049E00423A370032596E0E3
:1002D000A37843F00103A3705CE00423A37003251B
:1002E0008DE0A37843F00103A3706BE00423A370B7
:1002F000032584E0A37843F00103A370A37813F0EF
:10030000010F7CD13F4A136823F0040313603E4A77
:1003100013780133137085232380A37813F0040529
:10032000C2D13A4AB2F90020042AC1DD23F0010308
:10033000A370A37813F0010F61D1053A334B1A80F3
:1003400086232380A37813F00405B5D12D4A1268C3
:1003500012F0040FB4D123F00103A370A37813F0BB
:10036000010F4CD1274A136843F004031360284B54
:1003700000221A8087232380A57815F00405A3D1D5
:100380002449234800F086FC0228A1D9A37823F051
:100390000103A370A37813F0010F30D11C4B00228E
:1003A0001A8088232380A57815F0040595D1164B73
:1003B0001978174800F0A2FB022892D9A37823F0FD
:1003C0000103A370A37813F0010F18D1104B002282
:1003D0001A8089232380A57815F0040586D10E495B
:1003E0000B4800F057FC022884D9A37823F00103BE
:1003F000A37083E70823A3700023238003252846E6
:1004000038BD00BF901100202900002044000020CA
:1004100080190020100000200000002038B504469C
:10042000837863F07F0383700388002B3FD0772BA2
:1004300000F2C680702BC0F0C380703B072B00F227
:10044000BF80DFE803F03650677FBDBDBDAC04233D
:10045000A3700325B9E043F00103A37035E0042342
:10046000A3700325B1E0A37843F00103A37048E033
:100470000423A3700325A8E0A37843F00103A3702D
:1004800057E00423A37003259FE0A37843F0010302
:10049000A37065E00423A370032596E0A37843F0DE
:1004A0000103A370A37813F0010F40F08E80702336
:1004B0002380A37813F00405C9D1454A126812F0CD
:1004C000040FC8D123F00103A370A37813F0010F28
:1004D0007BD13F4A136843F0040313603D4B002275
:1004E0001A8071232380A57815F00405B7D13A4905
:1004F000384800F0CFFB0228B5D9A37823F00103D8
:10050000A370A37813F0010F5FD1324B00221A8041
:1005100072232380A57815F00405A9D12F4B1978F3
:100520002C4800F035FB0228A6D9A37823F001035C
:10053000A370A37813F0010F47D1264B00221A8035
:1005400073232380A57815F004059AD12449214806
:1005500000F0A0FB022898D9A37823F00103A37030
:10056000A37813F0010F30D1194A136823F0040364
:1005700013601C4A138801331380184A137801331F
:10058000137000F03DFCA06000F082FA20F480704F
:100590000005000D40F48070E06077232380A5788B
:1005A00015F004057FF476AFE168A06800F0ECF880
:1005B00000283FF473AFA37823F00103A37071E721
:1005C0000823A370002323800325284638BD00BFDD
:1005D0009011002080190020040000202800002035
:1005E000000000204400002008B5002000F0E2FDDB
:1005F0004FF4006000F0DEFD4FF40053002211467E
:10060000054800F003FD2023002201214FF0904017
:1006100000F0FCFC08BD00BF0008004808B5FFF76B
:10062000E3FF064800F078FB054800F00FF80548A6
:1006300000F00CF8044800F009F808BDB0130008F9
:10064000AD0100081D04000879020008F0B4314B28
:100650001F781F2F03D800252E462B4603E00020CD
:1006600039E00133DBB21F2B37D803EB43022A49B1
:1006700001EBC2025268824206D0002DF1D1002A5D
:10068000EFD11E460125ECE7234A03EB4301CD00E1
:1006900002EBC101002050538870496909688880C5
:1006A0001E49CB5501371B490F7006EB460102EB83
:1006B000C102128A52B91A490A88013292B20A80DA
:1006C00006EB4606144901EBC606328203EB4303F0
:1006D000114800EBC300F0BC7047CDB10E4B06EBE8
:1006E0004602D40003EBC2025060002119539170FE
:1006F0005069006881800949CE55013705490F705E
:1007000007480188013189B2018011821046E2E771
:100710000020E0E79C120020C0120020A012002060
:10072000C01500200023144A12789A4222D910B42E
:1007300005E00133DBB2104A12789A4216D91C4602
:100740000E4AD25CFD2AF4D802EB42020C4901EBBE
:10075000C20252688242ECD1084BFE221A55094A65
:10076000136843F001031360012000E000205DF8EE
:10077000044B7047002070479C120020A0120020FC
:10078000C01200209011002038B504460D4600F03C
:1007900037FB031BA04200D2013BAB4201D9012031
:1007A00038BD0020FCE7000038B5134B1D7800244D
:1007B00003E0013DEDB20134E4B2E5B10123A34011
:1007C0000E4909680B42F6D004EB44018B000C493A
:1007D00019448B68013B8B60002BEAD1084904EB7C
:1007E000440083000B445868986004EB4402930073
:1007F000CB589847DDE738BD9411002098120020AF
:10080000CC10002010B500241F2C24D804EB440386
:10081000DA00214B134400215960204AFF20105573
:1008200004EB4402D0001E4A024451601D4A02EB10
:10083000C400586104EB44018B001B490B4442F88F
:100840003430C4EB0412D3001849194400F078FA8C
:100850000134E4B2D8E70023154A13600F2B08D8FF
:1008600003EB43018A001349002088500133DBB2B7
:10087000F4E70023104A1370104A1370104A1370E3
:10088000202000F0DBF800F0CFFA00F05FFA00F073
:1008900003F9FFF7C3FE10BDC0120020A012002014
:1008A000C4150020981100204C000020CC0100202D
:1008B00098120020CC1000209C120020480000203C
:1008C0009411002070B5FFF79DFF234B00221A8082
:1008D0001CE005EB4505214B03EBC5056868FFF7F8
:1008E00021FF0134E4B2B4420BD21D4B1D5D05EB78
:1008F00045031A4800EBC300436898470328F0D12A
:10090000E7E7184B1B6813F0010F03D1164B1E7855
:100910000024E8E7144A1178114A525CFE2A03D0F9
:1009200099B10139C9B2F7E74A1CD2B2B24206D234
:10093000541E0B48855C05550132D2B2F6E7013EE4
:10094000074AFF209055F6B2EAE7074A167023F0EF
:100950000103044A1360D9E7C0150020C01200202B
:10096000A0120020901100209C1200200023438040
:10097000838002808160704710B48488028894422A
:100980000BD243881C4494FBF2F302FB13438268AE
:100990009BB2D1548388013383805DF8044B704748
:1009A00010B4438882881A44048892FBF4F304FB51
:1009B000132382689BB2D15483880288934204D067
:1009C000013383805DF8044B70474388013393FB08
:1009D000F2F102FB11324280F4E70023934219D274
:1009E00070B403E001339BB2934211D2868805882C
:1009F000AE42F7D24488264496FBF5F405FB146416
:100A00008568A4B2CE5C2E55848801348480E9E7E1
:100A100070BC7047704710B4034681684288885C98
:100A200001321C8892FBF4F104FB11225A809A884F
:100A3000013A9A805DF8044B70470000014B186042
:100A4000704700BFC41800200F4B1B6803EB8300E6
:100A5000C0EB001003EB4010C0EBC000C0EB004047
:100A60001B0C44F2A71202FB03F2084B03EA0243F9
:100A7000184410EBD23002D4034B1860704700F1D9
:100A800000400130F8E700BFC41800200000FF7FDD
:100A900008B500F0C5F908BD10B5094C094B236035
:100AA00009480A4B186040220949FFF75FFF4022BE
:100AB00008492068FFF75AFF00F074FA10BD00BF24
:100AC00020190020D4180020C81800203C1900204C
:100AD00040190020E018002003099F2802D903F1E3
:100AE0003700704703F13000704700F00F0009280D
:100AF00001D93730704730307047000070B5044678
:100B0000837863F07F03837003883BB1692B17D030
:100B10000823A37000232380032070BD0D461A4EC6
:100B200030233370782373700846FFF7D5FFB07019
:100B30002846FFF7DAFFF070002333716923238022
:100B4000A37813F0040016D1104A11680A88898826
:100B5000521A032A13DD23F00103A370A37813F0C4
:100B6000010FDAD104220849084B1868FFF735FF56
:100B700000F05EF9CCE70423A3700320CDE743F037
:100B80000103A370EAE700BF2C0000203C190020FD
:100B900038B50446837863F07F03837003883BB1E4
:100BA000842B44D00823A37000232380032038BD66
:100BB000324B00221A70632908D901221A70304B77
:100BC000A3FB01235B0930332E4A1370092912D984
:100BD0002A4B1A78501C1870294BA3FB01035B09A0
:100BE000642000FB1313DBB22748A0FB0303DB08E0
:100BF000303324488354214B1D786A1CD2B21A70BA
:100C0000214BA3FB0103DB0803EB8303A1EB4301AF
:100C100030311C484155002383541C4A13701B4B30
:100C20001A78164B1B789A4225D284232380A37806
:100C300013F0040017D1164A126811889288914265
:100C400015D023F00103A370A37813F0010FAED1E8
:100C50000E4A1378591C11700A4AD15C0C4B186863
:100C6000FFF78AFEDBE70423A37003209FE743F02E
:100C70000103A370E8E700F0DBF893E741000020F0
:100C80001F85EB5134000020CDCCCCCC400000209F
:100C90003C19002010B50446837863F07F0383700D
:100CA00003883BB1BF2B0ED00823A3700023238001
:100CB000032010BD164B1960154B1B681B78002BC9
:100CC000F2D0BF232380A37813F0040018D1114A77
:100CD000126811889288914216D023F00103A37004
:100CE000A37813F0010FE4D1094A1368591C11606D
:100CF0001978084B1868FFF73FFE00F099F8DBE71A
:100D00000423A3700320D4E743F00103A370E7E7B3
:100D10003C0000203C19002010B504460AE0074BB7
:100D20001868028883889A42F9D00134FFF724FEBC
:100D300000F07EF821780029F1D110BD3C19002087
:100D400008B578220068FFF711FE08BD10B582B023
:100D5000042000F003FB244800F0F8FA00F012FB36
:100D600000F008FB022000F0DBF900F021F904207C
:100D700000F026F900F02EF900F034F90024019477
:100D80000094234628220421022000F0FFF9204687
:100D900000F0C6F94FF4186000F00CFA40F681102C
:100DA00000F008FA40F6821000F004FA40F68310D2
:100DB00000F000FA40F6841000F0FCF94FF44060B7
:100DC00000F0F8F9032000F0D7F9204600F084F98C
:100DD000064B074A1360074A1360074A1360074B24
:100DE0001C6002B010BD00BF8038010000B4C40414
:100DF0001C00002020000020240000209819002062
:100E0000014B1868704700BF9819002008B5034AC5
:100E1000136801331360FFF7C7FC08BD9819002061
:100E200008B5FFF711FE08BD08B500F0D1F908BDFF
:100E30000C4B1B6813F0100F00D0704710B543F037
:100E40001003084A1360084B1868FFF7E4FD0146D9
:100E5000064B1870064C204600F021FA204600F0A0
:100E600014FA10BD901100203C1900209C1900209C
:100E70000044004010B51C4B1B6813F0200F04D039
:100E80001A4B1B6813F0200F16D1174B1B6813F079
:100E9000800F1BD0154B1B6813F0800F16D0144B1E
:100EA000186883889BB9104800F0F4F9114A136858
:100EB00023F01003136009E00B4800F0F4F9C1B20D
:100EC0000D4B19700D4B1868FFF76AFD10BDFFF749
:100ED000A2FD01460A4B1870034C204600F0DFF9D2
:100EE000204600F0D2F9F1E7004400401C440040E5
:100EF0003C190020901100209D190020201900208D
:100F00009C19002038B50546262000F043FA40F62B
:100F1000113000F04FF90423002202214FF09040DD
:100F200000F074F80823002202214FF0904000F0F6
:100F30006DF80823012211464FF0904000F086F82A
:100F4000042207214FF0904000F09BF8082207216F
:100F50004FF0904000F095F8114C2946204600F0E3
:100F60003FF90821204600F065F90021204600F0F5
:100F70006AF90C21204600F072F90021204600F0A9
:100F800068F90021204600F070F9204600F082F94F
:100F9000204600F075F9204600F06DF938BD00BF1D
:100FA0000044004008B54FF46140FFF7ABFF08BDB7
:100FB000024A136843F480731360704700200240B4
:100FC000034A136823F0070318431060704700BFFB
:100FD00000200240024A136843F4806313607047A4
:100FE00000200240024A136843F400731360704704
:100FF00000200240006908407047436901EA03028B
:1010000021EA030141EA0241816170472DE9F04183
:101010000568C46800264FF0030E43FA06F7FF0781
:101020000DD577000EFA07FC01FA07F825EA0C0542
:1010300024EA0C0402FA07F748EA05053C430136A6
:10104000102EEAD10560C460BDE8F0810129416835
:101050000CBF19439943F0B5416081680024032611
:1010600043FA04F5ED0707D5650006FA05F721EA0E
:10107000070102FA05F529430134102CF0D18160F3
:10108000F0BDF0B5076A466A00234FF00F0C42FA34
:1010900003F4E50707D59D000CFA05F427EA0407D9
:1010A00001FA05F52F430133082BF0D14FF00F0C57
:1010B00042FA03F4E40708D59C00203C0CFA04F53E
:1010C00026EA050601FA04F426430133102BEFD17A
:1010D00007624662F0BD0000032808D8DFE800F090
:1010E000160F08020D4A136813F00C0FFBD170475E
:1010F0000A4A1368C3F38103012BFAD17047074AE8
:101100001368C3F38103022BFAD17047034A1368B3
:10111000C3F38103032BFAD1704700BF08100240CC
:1011200006280AD8DFE800F0040A0F14191B1D0076
:101130000D4A136843F08073136070470A4A1368BE
:1011400043F48033F8E7084A136843F48073F3E705
:10115000054A136843F00103EEE7044AF9E7044A3D
:10116000F7E7044AF5E700BF001002409010024084
:101170009410024098100240034A136823F00303BE
:1011800018431060704700BF0810024010B5039C60
:101190000139640644EA01142043029C40EA4450A9
:1011A000034343EA0222024B42F080721A6010BDF0
:1011B0000C100240430903F1804303F5043300F0AF
:1011C0001F001968012202FA00F0084318607047F6
:1011D000024A136843F00403136070470008065086
:1011E0000F4A904210B54FEA510306D10D4A1268DA
:1011F0001A44B2FBF1F2C26010E00B4C0B4AA04261
:101200001268F5D1B2FBF1F001FB102203EB0222D0
:10121000B2FBF1F3064A03EB0023136010BD00BFDD
:101220000038014024000020008000402000002001
:101230000C800040036808290CBF23F4805343F45A
:10124000805303607047436823F44053194341605F
:101250007047036823F4C063194301607047036853
:1012600023F00C03194301607047836823F4407333
:10127000194381607047036843F0010303607047BE
:10128000036843F0200303607047036843F0800362
:1012900003607047036823F0800303607047C1F365
:1012A000080181627047406AC0F308007047FEE79A
:1012B0007047000038B51A4A1A4B1B498B421BD3A2
:1012C0001A4A002193421CD3194A1A4C13681A4D2A
:1012D00043F400731360536F43F470035367AC42DD
:1012E00012D3164C164DAC4212D3FFF7EBFA154C45
:1012F000154DAC4210D338BD52F8040B43F8040B23
:10130000DCE743F8041BDDE754F8043B9847E6E7C5
:1013100054F8043B9847E6E754F8043B9847E8E75D
:10132000EC1300080000002028000020A019002075
:1013300014ED00E0EC130008EC130008EC130008B7
:10134000EC130008EC130008EC130008024B20F02B
:101350007F401860704700BF14E000E0044A136843
:1013600000F0040023F0040303431360704700BF40
:1013700010E000E0024A136843F002031360704774
:1013800010E000E0024A136843F001031360704765
:1013900010E000E0054B420903EB820300F01F0060
:1013A000012202FA00F01860704700BF00E100E07F
:1013B0000A7372632F73656D6170686F7265315F58
:1013C0006170702E632C206275696C74206F6E20C2
:1013D0004D61722031302032303230206174203241
:0C13E000333A32343A30370A0000000083
:1013EC000D0A00005461736B20313A20000000009C
:1013FC005461736B20323A200000000000093D005C
:08140C0000093D0000093D004C
:04000005080012B528
:00000001FF
