:020000040800F2
:1000000000800220591400085514000853140008F9
:100010005314000853140008531400080000000093
:10002000000000000000000000000000551400085F
:10003000551400080000000055140008B10F000816
:1000400053140008531400085314000853140008F4
:1000500053140008531400085314000853140008E4
:1000600053140008531400085314000853140008D4
:1000700053140008531400085314000853140008C4
:1000800053140008531400085314000853140008B4
:1000900053140008531400085314000853140008A4
:1000A0005314000853140008531400085314000894
:1000B0005314000853140008531400085314000884
:1000C0005314000853140008531400085314000874
:1000D00053140008531400081910000853140008A2
:1000E0005314000853140008531400085314000854
:1000F0005314000853140008531400085314000844
:100100005314000853140008531400085314000833
:100110005314000853140008531400085314000823
:100120005314000853140008531400085314000813
:100130005314000853140008531400085314000803
:1001400053140008531400085314000853140008F3
:1001500053140008531400085314000853140008E3
:1001600053140008531400085314000853140008D3
:1001700053140008531400085314000853140008C3
:1001800053140008531400085314000853140008B3
:1001900053140008531400085314000853140008A3
:1001A00053140008531400085314000838B50446CB
:1001B000837863F07F03837003885F2B27D0612BE4
:1001C0003CD093B108238370002303800325284685
:1001D00038BD0423A3700325F9E7A37843F0010396
:1001E000A370A37813F0010FF1D120214FF09040BC
:1001F00000F0D5FF4FF400511E4800F0CDFFA8B924
:1002000000F0D0FEA0607D23E3605F232380A5780B
:1002100015F00405DDD1E168A06800F001FC0028BC
:10022000DBD0A37823F00103A370DAE700F0BAFE75
:10023000A0604FF41673E36061232380A57815F066
:1002400004050DD1E168A06800F0EAFB60B1A37875
:1002500023F00103A370A37813F0010FC5D0B6E714
:100260000423A3700325B2E7A37843F00103A3702E
:10027000F1E700BF0008004838B50446837863F012
:100280007F0383700388002B00F0AC807E2B00F28C
:100290000E81722BC0F00B81723B0C2B00F2078198
:1002A000DFE813F00F002C00460061000501050196
:1002B0008C0005010501AB00C500DC00F3007223D2
:1002C0002380A37813F0040540F0F880A34A126855
:1002D00012F0040F40F0F68023F00103A370A3781E
:1002E00013F0010F40F0E8809C4A136843F00403C8
:1002F00013609B4B00221A8073232380A57815F08E
:10030000040540F0E3809749954800F095FD0228E8
:1003100040F2E080A37823F00103A370A37813F0E8
:10032000010F40F0C9808E4B00221A807423238075
:10033000A57815F0040540F0D2808B4B19788848D9
:1003400000F0F8FC022840F2CE80A37823F00103ED
:10035000A370A37813F0010F40F0AE80804B002211
:100360001A8075232380A57815F0040540F0C0801D
:100370007E497B4800F060FD022840F2BD80A378F2
:1003800023F00103A370A37813F0010F40F09480D1
:10039000724A136823F004031360734A137801331D
:1003A000137000F0FFFDA06000F0A0FC40F6FF63BA
:1003B000034043F48073E36078232380A57815F02D
:1003C000040540F09E80E168A06800F029FB002849
:1003D00000F09B80A37823F00103A370A37813F0AF
:1003E000010F69D1604B1B78052B7FF668AF604A1F
:1003F0001388013313807B232380A37813F0040533
:1004000040F088805B4AB2F90020002A40F38680E1
:1004100023F00103A370A37813F0010F4CD1013A2C
:10042000544B1A804E4B00221A807C232380A578DF
:1004300015F0040576D14B49494800F0FDFC02282F
:1004400074D9A37823F00103A370A37813F0010FEC
:1004500032D1434B00221A807D232380A57815F0EA
:10046000040568D144493E4800F0E6FC022866D9FC
:10047000A37823F00103A370A37813F0010F1BD11D
:10048000374B00221A807E232380A57815F00405BF
:100490005AD13649324800F0CFFC022858D9A37807
:1004A00023F00103A370A37813F0010F04D10823F4
:1004B000A370002323800325284638BD0423A3709E
:1004C0000325F9E743F00103A37008E70423A370B1
:1004D0000325F1E7A37843F00103A3701EE704238B
:1004E000A3700325E8E7A37843F00103A37030E786
:1004F0000423A3700325DFE7A37843F00103A3706F
:1005000041E70423A3700325D6E7A37843F0010352
:10051000A37063E70423A3700325CDE743F0010331
:10052000A37078E70423A3700325C5E7A37843F0FD
:100530000103A37089E70423A3700325BCE7A37814
:1005400043F00103A37097E70423A3700325B3E7E7
:10055000A37843F00103A370A5E700BF9C1100201E
:100560008C1900200400002038000020000000202A
:10057000500000204C0000201C00002038B504462C
:10058000837863F07F0383700388002B00F0AC80D6
:10059000972B00F20E818B2BC0F00B818B3B0C2B29
:1005A00000F20781DFE813F00F002C004600610025
:1005B000050105018C0005010501AB00C500DC004B
:1005C000F3008B232380A37813F0040540F0F88018
:1005D000A34A126812F0040F40F0F68023F00103E2
:1005E000A370A37813F0010F40F0E8809C4A1368D1
:1005F00043F0040313609B4B00221A808C2323805A
:10060000A57815F0040540F0E3809749954800F07F
:1006100013FC022840F2E080A37823F00103A370CA
:10062000A37813F0010F40F0C9808E4B00221A808E
:100630008D232380A57815F0040540F0D2808B4BE4
:100640001978884800F076FB022840F2CE80A37823
:1006500023F00103A370A37813F0010F40F0AE80E4
:10066000804B00221A808E232380A57815F0040584
:1006700040F0C0807E497B4800F0DEFB022840F25B
:10068000BD80A37823F00103A370A37813F0010FBA
:1006900040F09480724A136823F004031360734A95
:1006A00013780133137000F07DFCA06000F01EFB96
:1006B00040F6FF63034043F48073E360912323809B
:1006C000A57815F0040540F09E80E168A06800F070
:1006D000A7F9002800F09B80A37823F00103A37002
:1006E000A37813F0010F69D1604B1B780B2B7FF6B9
:1006F00068AF604A13880133138094232380A37862
:1007000013F0040540F088805B4AB2F90020002A0B
:1007100040F3868023F00103A370A37813F0010F48
:100720004CD1013A544B1A804E4B00221A8095232B
:100730002380A57815F0040576D14B49494800F08F
:100740007BFB022874D9A37823F00103A370A3785C
:1007500013F0010F32D1434B00221A8096232380DD
:10076000A57815F0040568D144493E4800F064FBC3
:10077000022866D9A37823F00103A370A37813F0AD
:10078000010F1BD1374B00221A8097232380A578B5
:1007900015F004055AD13649324800F04DFB0228C5
:1007A00058D9A37823F00103A370A37813F0010FA5
:1007B00004D10823A370002323800325284638BDD5
:1007C0000423A3700325F9E743F00103A37008E7AE
:1007D0000423A3700325F1E7A37843F00103A3707A
:1007E0001EE70423A3700325E8E7A37843F0010381
:1007F000A37030E70423A3700325DFE7A37843F059
:100800000103A37041E70423A3700325D6E7A3786F
:1008100043F00103A37063E70423A3700325CDE72E
:1008200043F00103A37078E70423A3700325C5E711
:10083000A37843F00103A37089E70423A370032581
:10084000BCE7A37843F00103A37097E70423A370E8
:100850000325B3E7A37843F00103A370A5E700BF26
:100860009C1100208C19002010000020390000206D
:10087000000000204C000020500000201C00002040
:1008800008B5002000F068FD4FF4006000F064FD42
:100890004FF4005300221146054800F089FC202344
:1008A000002201214FF0904000F082FC08BD00BF03
:1008B0000008004808B5FFF7E3FF064800F0FEFA1D
:1008C000054800F00FF8054800F00CF8044800F067
:1008D00009F808BD54150008AD01000879020008A8
:1008E0007D050008F0B4314B1F781F2F03D8002579
:1008F0002E462B4603E0002039E00133DBB21F2BEC
:1009000037D803EB43022A4901EBC2025268824204
:1009100006D0002DF1D1002AEFD11E460125ECE7CB
:10092000234A03EB4301CD0002EBC10100205053E9
:1009300088704969096888801E49CB5501371B4971
:100940000F7006EB460102EBC102128A52B91A4936
:100950000A88013292B20A8006EB4606144901EB7E
:10096000C606328203EB4303114800EBC300F0BC20
:100970007047CDB10E4B06EB4602D40003EBC2022A
:1009800050600021195391705069006881800949B5
:10099000CE55013705490F7007480188013189B2EA
:1009A000018011821046E2E70020E0E7A812002053
:1009B000CC120020AC120020CC1500200023144AD9
:1009C00012789A4222D910B405E00133DBB2104A02
:1009D00012789A4216D91C460E4AD25CFD2AF4D8E7
:1009E00002EB42020C4901EBC20252688242ECD196
:1009F000084BFE221A55094A136843F0010313609D
:100A0000012000E000205DF8044B70470020704793
:100A1000A8120020AC120020CC1200209C11002053
:100A200038B504460D4600F0BDFA031BA04200D2C3
:100A3000013BAB4201D9012038BD0020FCE700009A
:100A400038B5134B1D78002403E0013DEDB20134AD
:100A5000E4B2E5B10123A3400E4909680B42F6D088
:100A600004EB44018B000C4919448B68013B8B60FB
:100A7000002BEAD1084904EB440083000B4458687A
:100A8000986004EB44029300CB589847DDE738BDEB
:100A9000A0110020A4120020D810002010B50024BE
:100AA0001F2C24D804EB4403DA00214B134400210B
:100AB0005960204AFF20105504EB4402D0001E4A22
:100AC000024451601D4A02EBC400586104EB44012A
:100AD0008B001B490B4442F83430C4EB0412D300A2
:100AE0001849194400F0FEF90134E4B2D8E70023B4
:100AF000154A13600F2B08D803EB43018A001349F2
:100B0000002088500133DBB2F4E70023104A137051
:100B1000104A1370104A1370202000F0BDF800F046
:100B200055FA00F0E5F900F0E5F8FFF7C3FE10BD57
:100B3000CC120020AC120020D0150020A4110020FF
:100B400058000020D8010020A4120020D810002056
:100B5000A812002054000020A011002070B5FFF75B
:100B60009DFF234B00221A801CE005EB4505214B1D
:100B700003EBC5056868FFF721FF0134E4B2B44216
:100B80000BD21D4B1D5D05EB45031A4800EBC3005E
:100B9000436898470328F0D1E7E7184B1B6813F028
:100BA000010F03D1164B1E780024E8E7144A117890
:100BB000114A525CFE2A03D099B10139C9B2F7E754
:100BC0004A1CD2B2B24206D2541E0B48855C05556F
:100BD0000132D2B2F6E7013E074AFF209055F6B245
:100BE000EAE7074A167023F00103044A1360D9E7C5
:100BF000CC150020CC120020AC1200209C1100204B
:100C0000A812002000234380838002808160704707
:100C100010B48488028894420BD243881C4494FB0D
:100C2000F2F302FB134382689BB2D15483880133F1
:100C300083805DF8044B704710B4438882881A445F
:100C4000048892FBF4F304FB132382689BB2D15413
:100C500083880288934204D0013383805DF8044B7B
:100C600070474388013393FBF2F102FB113242805B
:100C7000F4E710B4034681684288885C01321C881E
:100C800092FBF4F104FB11225A809A88013A9A806F
:100C90005DF8044B70470000014B1860704700BFBF
:100CA000D01800200F4B1B6803EB8300C0EB001033
:100CB00003EB4010C0EBC000C0EB00401B0C44F243
:100CC000A71202FB03F2084B03EA0243184410EB9D
:100CD000D23002D4034B1860704700F1004001305D
:100CE000F8E700BFD01800200000FF7F08B500F033
:100CF00069F908BD10B5094C094B236009480A4B36
:100D0000186040220949FFF77DFF4022084920680A
:100D1000FFF778FF00F018FA10BD00BF2C19002073
:100D2000E0180020D4180020481900204C19002099
:100D3000EC18002038B50446837863F07F03837095
:100D400003883BB1842B44D00823A3700023238065
:100D5000032038BD324B00221A70632908D90122C2
:100D60001A70304BA3FB01235B0930332E4A1370FA
:100D7000092912D92A4B1A78501C1870294BA3FB49
:100D800001035B09642000FB1313DBB22748A0FBBF
:100D90000303DB08303324488354214B1D786A1C3D
:100DA000D2B21A70214BA3FB0103DB0803EB8303D0
:100DB000A1EB430130311C484155002383541C4AA8
:100DC00013701B4B1A78164B1B789A4225D284233A
:100DD0002380A37813F0040017D1164A12681188F3
:100DE0009288914215D023F00103A370A37813F0E9
:100DF000010FAED10E4A1378591C11700A4AD15C0A
:100E00000C4B1868FFF704FFDBE70423A3700320F3
:100E10009FE743F00103A370E8E700F0DBF893E7F6
:100E2000490000201F85EB513C000020CDCCCCCCEC
:100E3000480000204819002010B50446837863F06C
:100E40007F03837003883BB1BF2B0ED00823A370B0
:100E500000232380032010BD164B1960154B1B681F
:100E60001B78002BF2D0BF232380A37813F004005B
:100E700018D1114A126811889288914216D023F035
:100E80000103A370A37813F0010FE4D1094A13689A
:100E9000591C11601978084B1868FFF7B9FE00F06B
:100EA00099F8DBE70423A3700320D4E743F00103A0
:100EB000A370E7E7440000204819002010B504465D
:100EC0000AE0074B1868028883889A42F9D00134F7
:100ED000FFF79EFE00F07EF821780029F1D110BDC9
:100EE0004819002008B578220068FFF78BFE08BD7E
:100EF00010B582B0042000F003FB244800F0F8FA9B
:100F000000F012FB00F008FB022000F0DBF900F01B
:100F100021F9042000F026F900F02EF900F034F950
:100F2000002401940094234628220421022000F08A
:100F3000FFF9204600F0C6F94FF4186000F00CFAF3
:100F400040F6811000F008FA40F6821000F004FA32
:100F500040F6831000F000FA40F6841000F0FCF92F
:100F60004FF4406000F0F8F9032000F0D7F9204674
:100F700000F084F9064B074A1360074A1360074ADA
:100F80001360074B1C6002B010BD00BF8038010029
:100F900000B4C4042C0000203000002034000020E5
:100FA000A4190020014B1868704700BFA419002045
:100FB00008B5034A136801331360FFF741FD08BD0C
:100FC000A419002008B5FFF76DFE08BD08B500F0B4
:100FD000D1F908BD0C4B1B6813F0100F00D07047FF
:100FE00010B543F01003084A1360084B1868FFF768
:100FF00040FE0146064B1870064C204600F021FAD0
:10100000204600F014FA10BD9C1100204819002061
:10101000A81900200044004010B51C4B1B6813F0B9
:10102000200F04D01A4B1B6813F0200F16D1174B5A
:101030001B6813F0800F1BD0154B1B6813F0800F3B
:1010400016D0144B186883889BB9104800F0F4F947
:10105000114A136823F01003136009E00B4800F0F5
:10106000F4F9C1B20D4B19700D4B1868FFF7E4FD90
:1010700010BDFFF7FEFD01460A4B1870034C2046D9
:1010800000F0DFF9204600F0D2F9F1E7004400401B
:101090001C440040481900209C110020A919002080
:1010A0002C190020A819002038B50546262000F08C
:1010B00043FA40F6113000F04FF9042300220221D8
:1010C0004FF0904000F074F80823002202214FF006
:1010D000904000F06DF80823012211464FF0904037
:1010E00000F086F8042207214FF0904000F09BF8B2
:1010F000082207214FF0904000F095F8114C294646
:10110000204600F03FF90821204600F065F9002153
:10111000204600F06AF90C21204600F072F9002107
:10112000204600F068F90021204600F070F92046C2
:1011300000F082F9204600F075F9204600F06DF9C4
:1011400038BD00BF0044004008B54FF46140FFF7D0
:10115000ABFF08BD024A136843F480731360704705
:1011600000200240034A136823F00703184310606D
:10117000704700BF00200240024A136843F48063B6
:101180001360704700200240024A136843F4007362
:1011900013607047002002400069084070474369AF
:1011A00001EA030221EA030141EA02418161704739
:1011B0002DE9F0410568C46800264FF0030E43FA9C
:1011C00006F7FF070DD577000EFA07FC01FA07F8BE
:1011D00025EA0C0524EA0C0402FA07F748EA05059B
:1011E0003C430136102EEAD10560C460BDE8F081B1
:1011F000012941680CBF19439943F0B541608168EA
:101200000024032643FA04F5ED0707D5650006FA26
:1012100005F721EA070102FA05F529430134102CEC
:10122000F0D18160F0BDF0B5076A466A00234FF047
:101230000F0C42FA03F4E50707D59D000CFA05F4FC
:1012400027EA040701FA05F52F430133082BF0D1F3
:101250004FF00F0C42FA03F4E40708D59C00203C41
:101260000CFA04F526EA050601FA04F426430133D4
:10127000102BEFD107624662F0BD0000032808D8AA
:10128000DFE800F0160F08020D4A136813F00C0F88
:10129000FBD170470A4A1368C3F38103012BFAD1CB
:1012A0007047074A1368C3F38103022BFAD17047D2
:1012B000034A1368C3F38103032BFAD1704700BFBD
:1012C0000810024006280AD8DFE800F0040A0F14CC
:1012D000191B1D000D4A136843F08073136070479B
:1012E0000A4A136843F48033F8E7084A136843F462
:1012F0008073F3E7054A136843F00103EEE7044AFD
:10130000F9E7044AF7E7044AF5E700BF0010024096
:10131000901002409410024098100240034A136853
:1013200023F0030318431060704700BF0810024009
:1013300010B5039C0139640644EA01142043029C61
:1013400040EA4450034343EA0222024B42F08072D7
:101350001A6010BD0C100240430903F1804303F5ED
:10136000043300F01F001968012202FA00F008435C
:1013700018607047024A136843F004031360704713
:10138000000806500F4A904210B54FEA510306D1AB
:101390000D4A12681A44B2FBF1F2C26010E00B4C25
:1013A0000B4AA0421268F5D1B2FBF1F001FB10220A
:1013B00003EB0222B2FBF1F3064A03EB00231360B6
:1013C00010BD00BF00380140340000200080004004
:1013D000300000200C800040036808290CBF23F473
:1013E000805343F4805303607047436823F44053B1
:1013F000194341607047036823F4C06319430160D7
:101400007047036823F00C03194301607047836839
:1014100023F44073194381607047036843F001036C
:1014200003607047036843F020030360704703685C
:1014300043F0800303607047036823F08003036078
:101440007047C1F3080181627047406AC0F3080029
:101450007047FEE77047000038B51A4A1A4B1B491F
:101460008B421BD31A4A002193421CD3194A1A4CAF
:1014700013681A4D43F400731360536F43F4700301
:101480005367AC4212D3164C164DAC4212D3FFF741
:1014900065FB154C154DAC4210D338BD52F8040B0A
:1014A00043F8040BDCE743F8041BDDE754F8043B86
:1014B0009847E6E754F8043B9847E6E754F8043BBE
:1014C0009847E8E790150008000000203800002049
:1014D000AC19002014ED00E09015000890150008EC
:1014E0009015000890150008901500089015000848
:1014F000024B20F07F401860704700BF14E000E00E
:10150000044A136800F0040023F00403034313604B
:10151000704700BF10E000E0024A136843F0020386
:101520001360704710E000E0024A136843F00103C3
:101530001360704710E000E0054B420903EB8203A3
:1015400000F01F00012202FA00F01860704700BF8F
:1015500000E100E00A7372632F73656D6170686F5C
:101560007265325F6170702E632C206275696C74D5
:10157000206F6E204D6172203130203230323020A9
:1015800061742032333A32363A33380A00000000B0
:101590000D0A00005461736B20313A2000000000F6
:1015A0005461736B20323A200000000072656E6453
:1015B000657A2D766F7573210000000000093D00EB
:0815C00000093D0000093D0097
:040000050800145982
:00000001FF
