:020000040800F2
:1000000000800220790E0008750E0008730E0008AB
:10001000730E0008730E0008730E00080000000045
:10002000000000000000000000000000750E000845
:10003000750E000800000000750E0008D9090008C0
:10004000730E0008730E0008730E0008730E00088C
:10005000730E0008730E0008730E0008730E00087C
:10006000730E0008730E0008730E0008730E00086C
:10007000730E0008730E0008730E0008730E00085C
:10008000730E0008730E0008730E0008730E00084C
:10009000730E0008730E0008730E0008730E00083C
:1000A000730E0008730E0008730E0008730E00082C
:1000B000730E0008730E0008730E0008730E00081C
:1000C000730E0008730E0008730E0008730E00080C
:1000D000730E0008730E0008390A0008730E00083A
:1000E000730E0008730E0008730E0008730E0008EC
:1000F000730E0008730E0008730E0008730E0008DC
:10010000730E0008730E0008730E0008730E0008CB
:10011000730E0008730E0008730E0008730E0008BB
:10012000730E0008730E0008730E0008730E0008AB
:10013000730E0008730E0008730E0008730E00089B
:10014000730E0008730E0008730E0008730E00088B
:10015000730E0008730E0008730E0008730E00087B
:10016000730E0008730E0008730E0008730E00086B
:10017000730E0008730E0008730E0008730E00085B
:10018000730E0008730E0008730E0008730E00084B
:10019000730E0008730E0008730E0008730E00083B
:1001A000730E0008730E0008730E000808B52021B6
:1001B0004FF0904000F003FD08BD000038B5044644
:1001C000837863F07F0383700388002B56D06A2BFB
:1001D00000F2AB805F2BC0F0A8805F3B0B2B00F2DE
:1001E000A480DFE803F04D67A2A2A2A2A2A2A2A26D
:1001F00019330423A37003259CE043F00103A3708B
:100200004AE00423A370032594E0A37843F001039C
:10021000A3705EE069232380A37813F0040573D1F3
:10022000454A126812F0040F72D123F00103A37043
:10023000A37813F0010F7DD13F4A136843F0040304
:1002400013603E4B00221A806A232380A57815F0A4
:10025000040561D13A4B1978384800F0C3FA0228F6
:100260005ED9A37823F00103A370A37813F0010FE4
:1002700060D1314A136823F0040313605F232380A5
:10028000A37813F00405B4D12B4A126812F0080FBA
:10029000B3D123F00103A370A37813F0010F49D168
:1002A000254A136843F008031360264B00221A8086
:1002B00060232380A57815F00405A2D101222049EE
:1002C000204800F0C9FA02289FD9A37823F001033F
:1002D000A370A37813F0010F2CD1174A136823F0F1
:1002E000080313604FF40051174800F065FC002824
:1002F00090D1134B1A78A2F16103DBB2192B89D884
:10030000203A0F4B1A7085E70423A370032511E0F0
:1003100043F00103A3708BE70423A370032509E0D6
:10032000A37843F00103A3709FE70823A370002381
:1003300023800325284638BD601100205019002075
:100340000C000020F41800200008004808B5002028
:1003500000F012FD4FF4006000F00EFD4FF400536A
:1003600000221146054800F033FC20230022012121
:100370004FF0904000F02CFC08BD00BF0008004882
:1003800008B5FFF7E3FF054800F0B2FA044800F0B3
:100390000BF8FA21034800F0D3F808BD740F0008E9
:1003A000BD010008AD010008F0B4314B1F781F2FCC
:1003B00003D800252E462B4603E0002039E0013308
:1003C000DBB21F2B37D803EB43022A4901EBC202F1
:1003D0005268824206D0002DF1D1002AEFD11E468C
:1003E0000125ECE7234A03EB4301CD0002EBC101F9
:1003F0000020505388704969096888801E49CB5590
:1004000001371B490F7006EB460102EBC102128A4D
:1004100052B91A490A88013292B20A8006EB46069E
:10042000144901EBC606328203EB4303114800EB8B
:10043000C300F0BC7047CDB10E4B06EB4602D400B2
:1004400003EBC2025060002119539170506900689B
:1004500081800949CE55013705490F700748018849
:10046000013189B2018011821046E2E70020E0E705
:100470006C120020901200207012002090150020B5
:100480000023144A12789A4222D910B405E00133AD
:10049000DBB2104A12789A4216D91C460E4AD25C38
:1004A000FD2AF4D802EB42020C4901EBC202526869
:1004B0008242ECD1084BFE221A55094A136843F0D8
:1004C00001031360012000E000205DF8044B704739
:1004D000002070476C120020701200209012002043
:1004E0006011002038B5134B1D78002403E0013D56
:1004F000EDB20134E4B2E5B10123A3400E4909682D
:100500000B42F6D004EB44018B000C4919448B6874
:10051000013B8B60002BEAD1084904EB44008300C7
:100520000B445868986004EB44029300CB589847FA
:10053000DDE738BD64110020681200209C10002007
:10054000F0B5134B1D780F2D0CD8074600200F284F
:100550001CD8012383400F4A1268134204D0013093
:10056000C0B2F4E7FF2012E00B4E00EB400C06EBAC
:100570008C0E46F82C70CEF80410CEF80810013519
:1005800003490D701343034A136000E0FF20F0BDE0
:1005900064110020681200209C10002010B5002477
:1005A0001F2C24D804EB4403DA00214B1344002110
:1005B0005960204AFF20105504EB4402D0001E4A27
:1005C000024451601D4A02EBC400586104EB44012F
:1005D0008B001B490B4442F83430C4EB0412D300A7
:1005E0001849194400F098F90134E4B2D8E700231F
:1005F000154A13600F2B08D803EB43018A001349F7
:10060000002088500133DBB2F4E70023104A137056
:10061000104A1370104A1370202000F0BDF800F04B
:10062000E5F900F07FF900F0BDF8FFF7A9FE10BD75
:1006300090120020701200209415002068110020F4
:100640001C0000209C010020681200209C1000204B
:100650006C120020180000206411002070B5FFF714
:100660009DFF234B00221A801CE005EB4505214B22
:1006700003EBC5056868FFF703FF0134E4B2B44239
:100680000BD21D4B1D5D05EB45031A4800EBC30063
:10069000436898470328F0D1E7E7184B1B6813F02D
:1006A000010F03D1164B1E780024E8E7144A117895
:1006B000114A525CFE2A03D099B10139C9B2F7E759
:1006C0004A1CD2B2B24206D2541E0B48855C055574
:1006D0000132D2B2F6E7013E074AFF209055F6B24A
:1006E000EAE7074A167023F00103044A1360D9E7CA
:1006F0009015002090120020701200206011002040
:100700006C12002000234380838002808160704748
:1007100010B48488028894420BD243881C4494FB12
:10072000F2F302FB134382689BB2D15483880133F6
:1007300083805DF8044B704710B4438882881A4464
:10074000048892FBF4F304FB132382689BB2D15418
:1007500083880288934204D0013383805DF8044B80
:1007600070474388013393FBF2F102FB1132428060
:10077000F4E710B4034681684288885C01321C8823
:1007800092FBF4F104FB11225A809A88013A9A8074
:100790005DF8044B70470000014B1860704700BFC4
:1007A0009418002010B5094C094B236009480A4BE6
:1007B000186040220949FFF7A5FF40220849206838
:1007C000FFF7A0FF00F0D0F910BD00BFF018002027
:1007D000A4180020981800200C19002010190020DF
:1007E000B018002010B50446837843F0800383706E
:1007F00002883AB1542A09D00823A3700023238029
:10080000032010BD124A11705422028013F004001C
:1008100015D1104A126811889288914213D023F0A2
:100820000103A370A37813F0010FEAD1084B1978E4
:10083000084B1868FFF76CFF00F0DCF8DCE70423D6
:10084000A3700320DDE743F00103A370EAE700BFD4
:10085000160000200C190020F8B50446837863F0D8
:100860007F03837003883BB1D72B14D00823A37078
:10087000002323800320F8BD194B1A70194B19600F
:10088000194B00221A70184B1A78154B1B789A4294
:10089000ECD2D7232380A37813F0040017D1134A96
:1008A00012689288BAB123F00103A370A37813F001
:1008B000010FE0D10C4D2E780A4B1F680B4B1868C6
:1008C000FFF757FFB8552B7801332B70DBE7042374
:1008D000A3700320CFE743F00103A370E6E700BF56
:1008E000140000201000002015000020F018002047
:1008F00010B504460AE0074B1868028883889A42BC
:10090000F9D00134FFF704FF00F074F821780029D2
:10091000F1D110BD0C19002008B578220068FFF74E
:10092000F1FE08BD10B582B0042000F0F9FA2448A9
:1009300000F0EEFA00F008FB00F0FEFA022000F0F2
:10094000D1F900F017F9042000F01CF900F024F9A7
:1009500000F02AF90024019400942346282204215F
:10096000022000F0F5F9204600F0BCF94FF41860C1
:1009700000F002FA40F6811000F0FEF940F6821015
:1009800000F0FAF940F6831000F0F6F940F6841012
:1009900000F0F2F94FF4406000F0EEF9032000F0AF
:1009A000CDF9204600F07AF9064B074A1360074A52
:1009B0001360074A1360074B1C6002B010BD00BFF4
:1009C0008038010000B4C4040000002004000020AE
:1009D000080000206819002008B5034A1368013395
:1009E0001360FFF77FFD08BD6819002008B500F00F
:1009F000D1F908BD0C4B1B6813F0100F00D07047E5
:100A000010B543F01003084A1360084B1868FFF74D
:100A1000B0FE0146064B1870064C204600F021FA45
:100A2000204600F014FA10BD601100200C190020BF
:100A30006C1900200044004010B51C4B1B6813F0DB
:100A4000200F04D01A4B1B6813F0200F16D1174B40
:100A50001B6813F0800F1BD0154B1B6813F0800F21
:100A600016D0144B186883889BB9104800F0F4F92D
:100A7000114A136823F01003136009E00B4800F0DB
:100A8000F4F9C1B20D4B19700D4B1868FFF754FE05
:100A900010BDFFF76EFE01460A4B1870034C20464E
:100AA00000F0DFF9204600F0D2F9F1E70044004001
:100AB0001C4400400C190020601100206D1900201A
:100AC000F01800206C19002038B50546262000F0EB
:100AD00043FA40F6113000F04FF9042300220221BE
:100AE0004FF0904000F074F80823002202214FF0EC
:100AF000904000F06DF80823012211464FF090401D
:100B000000F086F8042207214FF0904000F09BF897
:100B1000082207214FF0904000F095F8114C29462B
:100B2000204600F03FF90821204600F065F9002139
:100B3000204600F06AF90C21204600F072F90021ED
:100B4000204600F068F90021204600F070F92046A8
:100B500000F082F9204600F075F9204600F06DF9AA
:100B600038BD00BF0044004008B54FF46140FFF7B6
:100B7000ABFF08BD024A136843F4807313607047EB
:100B800000200240034A136823F007031843106053
:100B9000704700BF00200240024A136843F480639C
:100BA0001360704700200240024A136843F4007348
:100BB0001360704700200240006908407047436995
:100BC00001EA030221EA030141EA0241816170471F
:100BD0002DE9F0410568C46800264FF0030E43FA82
:100BE00006F7FF070DD577000EFA07FC01FA07F8A4
:100BF00025EA0C0524EA0C0402FA07F748EA050581
:100C00003C430136102EEAD10560C460BDE8F08196
:100C1000012941680CBF19439943F0B541608168CF
:100C20000024032643FA04F5ED0707D5650006FA0C
:100C300005F721EA070102FA05F529430134102CD2
:100C4000F0D18160F0BDF0B5076A466A00234FF02D
:100C50000F0C42FA03F4E50707D59D000CFA05F4E2
:100C600027EA040701FA05F52F430133082BF0D1D9
:100C70004FF00F0C42FA03F4E40708D59C00203C27
:100C80000CFA04F526EA050601FA04F426430133BA
:100C9000102BEFD107624662F0BD0000032808D890
:100CA000DFE800F0160F08020D4A136813F00C0F6E
:100CB000FBD170470A4A1368C3F38103012BFAD1B1
:100CC0007047074A1368C3F38103022BFAD17047B8
:100CD000034A1368C3F38103032BFAD1704700BFA3
:100CE0000810024006280AD8DFE800F0040A0F14B2
:100CF000191B1D000D4A136843F080731360704781
:100D00000A4A136843F48033F8E7084A136843F447
:100D10008073F3E7054A136843F00103EEE7044AE2
:100D2000F9E7044AF7E7044AF5E700BF001002407C
:100D3000901002409410024098100240034A136839
:100D400023F0030318431060704700BF08100240EF
:100D500010B5039C0139640644EA01142043029C47
:100D600040EA4450034343EA0222024B42F08072BD
:100D70001A6010BD0C100240430903F1804303F5D3
:100D8000043300F01F001968012202FA00F0084342
:100D900018607047024A136843F0040313607047F9
:100DA000000806500F4A904210B54FEA510306D191
:100DB0000D4A12681A44B2FBF1F2C26010E00B4C0B
:100DC0000B4AA0421268F5D1B2FBF1F001FB1022F0
:100DD00003EB0222B2FBF1F3064A03EB002313609C
:100DE00010BD00BF00380140080000200080004016
:100DF000040000200C800040036808290CBF23F485
:100E0000805343F4805303607047436823F4405396
:100E1000194341607047036823F4C06319430160BC
:100E20007047036823F00C0319430160704783681F
:100E300023F44073194381607047036843F0010352
:100E400003607047036843F0200303607047036842
:100E500043F0800303607047036823F0800303605E
:100E60007047C1F3080181627047406AC0F308000F
:100E70007047FEE77047000038B51A4A1A4B1B4905
:100E80008B421BD31A4A002193421CD3194A1A4C95
:100E900013681A4D43F400731360536F43F47003E7
:100EA0005367AC4212D3164C164DAC4212D3FFF727
:100EB000D5FB154C154DAC4210D338BD52F8040B80
:100EC00043F8040BDCE743F8041BDDE754F8043B6C
:100ED0009847E6E754F8043B9847E6E754F8043BA4
:100EE0009847E8E7AC0F0008000000200C00002045
:100EF0007019002014ED00E0AC0F0008AC0F0008E2
:100F0000AC0F0008AC0F0008AC0F0008AC0F0008D5
:100F1000024B20F07F401860704700BF14E000E0F3
:100F2000044A136800F0040023F004030343136031
:100F3000704700BF10E000E0024A136843F002036C
:100F40001360704710E000E0024A136843F00103A9
:100F50001360704710E000E0054B420903EB820389
:100F600000F01F00012202FA00F01860704700BF75
:100F700000E100E00A7372632F737774696D657224
:100F80005F6170702E632C206275696C74206F6EC7
:100F9000204D617220313020323032302061742097
:0C0FA00032333A32393A32320A00000093
:0C0FAC0000093D0000093D0000093D0067
:0400000508000E7968
:00000001FF
