:020000040800F2
:10000000008002206D0A0008690A0008670A0008DB
:10001000670A0008670A0008670A00080000000075
:10002000000000000000000000000000690A000855
:10003000690A000800000000690A0008E5050008D8
:10004000670A0008670A0008670A0008670A0008CC
:10005000670A0008670A0008670A0008670A0008BC
:10006000670A0008670A0008670A0008670A0008AC
:10007000670A0008670A0008670A0008670A00089C
:10008000670A0008670A0008670A0008670A00088C
:10009000670A0008670A0008670A0008670A00087C
:1000A000670A0008670A0008670A0008670A00086C
:1000B000670A0008670A0008670A0008670A00085C
:1000C000670A0008670A0008670A0008670A00084C
:1000D000670A0008670A000845060008670A000862
:1000E000670A0008670A0008670A0008670A00082C
:1000F000670A0008670A0008670A0008670A00081C
:10010000670A0008670A0008670A0008670A00080B
:10011000670A0008670A0008670A0008670A0008FB
:10012000670A0008670A0008670A0008670A0008EB
:10013000670A0008670A0008670A0008670A0008DB
:10014000670A0008670A0008670A0008670A0008CB
:10015000670A0008670A0008670A0008670A0008BB
:10016000670A0008670A0008670A0008670A0008AB
:10017000670A0008670A0008670A0008670A00089B
:10018000670A0008670A0008670A0008670A00088B
:10019000670A0008670A0008670A0008670A00087B
:1001A000670A0008670A0008670A000808B5002007
:1001B00000F0DCFB4FF4006000F0D8FB4FF400537C
:1001C00000221146054800F0FDFA202300220121FB
:1001D0004FF0904000F0F6FA08BD00BF000800485C
:1001E00008B5FFF7E3FF024800F088F908BD00BF3B
:1001F000680B00080023144A12789A4222D910B4DE
:1002000005E00133DBB2104A12789A4216D91C4637
:100210000E4AD25CFD2AF4D802EB42020C4901EBF3
:10022000C20252688242ECD1084BFE221A55094A9A
:10023000136843F001031360012000E000205DF823
:10024000044B7047002070476012002064120020A9
:10025000841200205411002038B5134B1D7800245F
:1002600003E0013DEDB20134E4B2E5B10123A34066
:100270000E4909680B42F6D004EB44018B000C498F
:1002800019448B68013B8B60002BEAD1084904EBD1
:10029000440083000B445868986004EB44029300C8
:1002A000CB589847DDE738BD581100205C1200207C
:1002B0009010002010B500241F2C24D804EB440318
:1002C000DA00214B134400215960204AFF201055C9
:1002D00004EB4402D0001E4A024451601D4A02EB66
:1002E000C400586104EB44018B001B490B4442F8E5
:1002F0003430C4EB0412D3001849194400F012F949
:100300000134E4B2D8E70023154A13600F2B08D854
:1003100003EB43018A001349002088500133DBB20C
:10032000F4E70023104A1370104A1370104A137038
:10033000202000F0BDF800F05FF900F0F9F800F0BF
:10034000BDF8FFF74DFF10BD84120020641200209D
:10035000881500205C110020100000209001002072
:100360005C12002090100020601200200C00002081
:100370005811002070B5FFF79DFF234B00221A8013
:100380001CE005EB4505214B03EBC5056868FFF74D
:1003900031FF0134E4B2B4420BD21D4B1D5D05EBBD
:1003A00045031A4800EBC300436898470328F0D17F
:1003B000E7E7184B1B6813F0010F03D1164B1E78AB
:1003C0000024E8E7144A1178114A525CFE2A03D04F
:1003D00099B10139C9B2F7E74A1CD2B2B24206D28A
:1003E000541E0B48855C05550132D2B2F6E7013E3A
:1003F000074AFF209055F6B2EAE7074A167023F045
:100400000103044A1360D9E78415002084120020F8
:100410006412002054110020601200200023438049
:10042000838002808160704710B48488028894427F
:100430000BD243881C4494FBF2F302FB1343826803
:100440009BB2D1548388013383805DF8044B70479D
:1004500010B4438882881A44048892FBF4F304FBA6
:10046000132382689BB2D15483880288934204D0BC
:10047000013383805DF8044B70474388013393FB5D
:10048000F2F102FB11324280F4E710B403468168B6
:100490004288885C01321C8892FBF4F104FB112233
:1004A0005A809A88013A9A805DF8044B70470000A0
:1004B000014B1860704700BF8818002010B5094C28
:1004C000094B236009480A4B186040220949FFF78D
:1004D000A5FF402208492068FFF7A0FF00F04AF975
:1004E00010BD00BFE4180020981800208C180020D0
:1004F0000019002004190020A418002010B504469B
:100500000AE0074B1868028883889A42F9D00134C0
:10051000FFF78AFF00F074F821780029F1D110BDAF
:100520000019002008B578220068FFF777FF08BDA2
:1005300010B582B0042000F0EDFA244800F0E2FA91
:1005400000F0FCFA00F0F2FA022000F0C5F900F029
:1005500017F9042000F01CF900F024F900F02AF942
:10056000002401940094234628220421022000F054
:10057000E9F9204600F0B0F94FF4186000F0F6F900
:1005800040F6811000F0F2F940F6821000F0EEF92A
:1005900040F6831000F0EAF940F6841000F0E6F926
:1005A0004FF4406000F0E2F9032000F0C1F920466A
:1005B00000F06EF9064B074A1360074A1360074ABA
:1005C0001360074B1C6002B010BD00BF80380100F3
:1005D00000B4C40400000020040000200800002033
:1005E0005C19002008B5034A136801331360FFF754
:1005F00033FE08BD5C19002008B500F0C5F908BD40
:100600000C4B1B6813F0100F00D0704710B543F06F
:100610001003084A1360084B1868FFF736FF0146BD
:10062000064B1870064C204600F015FA204600F0E4
:1006300008FA10BD54110020001900206019002094
:100640000044004010B51C4B1B6813F0200F04D071
:100650001A4B1B6813F0200F16D1174B1B6813F0B1
:10066000800F1BD0154B1B6813F0800F16D0144B56
:10067000186883889BB9104800F0E8F9114A13689C
:1006800023F01003136009E00B4800F0E8F9C1B251
:100690000D4B19700D4B1868FFF7DAFE10BDFFF710
:1006A000F4FE01460A4B1870034C204600F0D3F9C3
:1006B000204600F0C6F9F1E7004400401C44004029
:1006C000001900205411002061190020E4180020B6
:1006D0006019002038B50546262000F037FA40F6AC
:1006E000113000F043F90423002202214FF0904022
:1006F00000F068F80823002202214FF0904000F03B
:1007000061F80823012211464FF0904000F07AF87A
:10071000042207214FF0904000F08FF808220721B3
:100720004FF0904000F089F8114C2946204600F027
:1007300033F90821204600F059F90021204600F045
:100740005EF90C21204600F066F90021204600F0F9
:100750005CF90021204600F064F9204600F076F9AB
:10076000204600F069F9204600F061F938BD00BF6D
:100770000044004008B54FF46140FFF7ABFF08BDEF
:10078000024A136843F480731360704700200240EC
:10079000034A136823F0070318431060704700BF33
:1007A00000200240024A136843F4806313607047DC
:1007B00000200240024A136843F40073136070473C
:1007C000002002402DE9F0410568C46800264FF082
:1007D000030E43FA06F7FF070DD577000EFA07FC64
:1007E00001FA07F825EA0C0524EA0C0402FA07F7D7
:1007F00048EA05053C430136102EEAD10560C46085
:10080000BDE8F081012941680CBF19439943F0B557
:10081000416081680024032643FA04F5ED0707D5FB
:10082000650006FA05F721EA070102FA05F52943F2
:100830000134102CF0D18160F0BDF0B5076A466A32
:1008400000234FF00F0C42FA03F4E50707D59D0093
:100850000CFA05F427EA040701FA05F52F430133E2
:10086000082BF0D14FF00F0C42FA03F4E40708D53F
:100870009C00203C0CFA04F526EA050601FA04F473
:1008800026430133102BEFD107624662F0BD000012
:10089000032808D8DFE800F0160F08020D4A136895
:1008A00013F00C0FFBD170470A4A1368C3F381039E
:1008B000012BFAD17047074A1368C3F38103022B57
:1008C000FAD17047034A1368C3F38103032BFAD1AB
:1008D000704700BF0810024006280AD8DFE800F081
:1008E000040A0F14191B1D000D4A136843F080738E
:1008F000136070470A4A136843F48033F8E7084AE4
:10090000136843F48073F3E7054A136843F0010367
:10091000EEE7044AF9E7044AF7E7044AF5E700BFBF
:1009200000100240901002409410024098100240C3
:10093000034A136823F0030318431060704700BF95
:100940000810024010B5039C0139640644EA011402
:100950002043029C40EA4450034343EA0222024BF4
:1009600042F080721A6010BD0C100240430903F17E
:10097000804303F5043300F01F001968012202FAD6
:1009800000F0084318607047024A136843F00403FC
:1009900013607047000806500F4A904210B54FEAA6
:1009A000510306D10D4A12681A44B2FBF1F2C2603B
:1009B00010E00B4C0B4AA0421268F5D1B2FBF1F0EB
:1009C00001FB102203EB0222B2FBF1F3064A03EB18
:1009D0000023136010BD00BF003801400800002054
:1009E00000800040040000200C80004003680829BB
:1009F0000CBF23F4805343F4805303607047436873
:100A000023F44053194341607047036823F4C063E3
:100A1000194301607047036823F00C031943016018
:100A20007047836823F440731943816070470368FB
:100A300043F0010303607047036843F02003036041
:100A40007047036843F0800303607047036823F036
:100A5000800303607047C1F3080181627047406AF8
:100A6000C0F308007047FEE77047000038B51A4A27
:100A70001A4B1B498B421BD31A4A002193421CD3A9
:100A8000194A1A4C13681A4D43F400731360536FDC
:100A900043F470035367AC4212D3164C164DAC426C
:100AA00012D3FFF767FC154C154DAC4210D338BD7F
:100AB00052F8040B43F8040BDCE743F8041BDDE7B2
:100AC00054F8043B9847E6E754F8043B9847E6E7B8
:100AD00054F8043B9847E8E79C0B0008000000200E
:100AE0000C0000206419002014ED00E09C0B0008AD
:100AF0009C0B00089C0B00089C0B00089C0B00083A
:100B00009C0B0008024B20F07F401860704700BF2C
:100B100014E000E0044A136800F0040023F004032A
:100B200003431360704700BF10E000E0024A1368FF
:100B300043F002031360704710E000E0024A1368BC
:100B400043F001031360704710E000E0054B4209D9
:100B500003EB820300F01F00012202FA00F018608C
:100B6000704700BF00E100E00A7372632F6E6F618F
:100B700070705F6170702E632C206275696C7420D8
:100B80006F6E204D61722031302032303230206162
:0C0B9000742032333A32323A31330A001A
:0C0B9C0000093D0000093D0000093D007B
:0400000508000A6D78
:00000001FF
